S0180000696E6375616261746F7253797374656D2E737265635F
S11300000C9441000C945E000C945E000C945E0011
S11300100C945E000C945E000C945E000C945E00E4
S11300200C945E000C945E000C945E000C945E00D4
S11300300C945E000C94B5010C945E000C945E006C
S11300400C945E000C945E000C945E000C945E00B4
S11300500C945E00B904C304CD04D704E104EB049A
S1130060F504FF0422052D05380542054D05580504
S113007063058D069806A306AE06B906C406CF0628
S1130080DA0611241FBECFE5D8E0DEBFCDBF10E0F5
S1130090A0E6B0E0E2E4FEE002C005900D92A03AD2
S11300A0B107D9F720E0A0EAB0E001C01D92A63C58
S11300B0B207E1F70E9435040C941F070C9400006A
S11300C098B39E7F98BB98B39D7F98BBEFECF7E005
S11300D03197F1F700C0000098B3946098BBEFEC3F
S11300E0F7E03197F1F700C0000095B3282F22956F
S11300F02F70907F922B95BBEFECF7E03197F1F7DF
S113010000C0000098B39B7F98BBEFECF7E03197F9
S1130110F1F700C0000098B3946098BBEFECF7E0EF
S11301203197F1F700C0000095B3907F8F70892B51
S113013085BB8FEC97E00197F1F700C0000088B30E
S11301408B7F88BBEFECF7E03197F1F700C000003C
S1130150089587B3876087BB84B38F6084BB82E0D4
S11301600E94600088E20E9460008CE00E946000AF
S113017081E00E946000089598B3916098BB98B3A1
S11301809D7F98BBEFECF7E03197F1F700C00000DA
S113019098B3946098BBEFECF7E03197F1F700C0A7
S11301A0000095B3282F22952F70907F922B95BB3A
S11301B0EFECF7E03197F1F700C0000098B39B7FB4
S11301C098BBEFECF7E03197F1F700C0000098B36B
S11301D0946098BBEFECF7E03197F1F700C00000B2
S11301E095B3907F8F70892B85BB8FEC97E0019737
S11301F0F1F700C0000088B38B7F88BBEFECF7E019
S11302003197F1F700C0000008950F931F93CF9327
S11302108C01C0E003C00E94BC00CF5FF801EC0F6A
S1130220F11D80818111F7CFCF911F910F91089516
S1130230813031F070F0823031F0833039F00AC00F
S113024090E4960F07C090E1960F04C090E5960FD6
S113025001C0962F892F80680E9460000895CF9373
S1130260DF93EA010E941801CE010E940501DF918B
S1130270CF910895CF93DF9300D0CDB7DEB780EA56
S113028089838A818C7F81608A83CE0101960E9452
S11302906B040F900F90DF91CF910895CF93DF936C
S11302A000D000D0CDB7DEB7809173008983CE0132
S11302B001960E94BF05698166FB662760F9CE013D
S11302C001960E94F705809174008A83CE010296FC
S11302D00E94BF056A8166FB662760F9CE0102961B
S11302E00E94F70583E08B838C83CE0103960E94E2
S11302F03E061CBE0F900F900F900F90DF91CF9190
S113030008958091BF0080628C7F8160837E8861C4
S113031080648093BF008FEB90E00E94BF05089536
S1130320282F33E0380F80E090E01CC0622F70E08B
S1130330FB01E255FF4F4081840F911DC097432F6D
S113034050E041505109641775075CF4AC01440F47
S1130350551F880F991F880F991F880F991F840FA5
S1130360951F2F5F231710F308951F920F920FB656
S11303700F9211242F933F934F935F936F937F9327
S11303808F939F93AF93BF93CF93DF93EF93FF9399
S1130390F8949CB19093A8008091AD00E82FF0E010
S11303A0E255FF4F90838F5F8093AD00803109F059
S11303B00EC18091C2008F5F8093C2008091AE0015
S11303C0803409F002C18091AF008D3409F474C007
S11303D0833509F4CCC0813409F0F7C083E00E946E
S11303E090019093A4008093A30087E00E94900161
S11303F09093AC008093AB002091A5003091A600AF
S113040082179307A8F483B78F7E83BF83B7806274
S113041083BF88EC0E946A0660E08FEB90E00E9444
S1130420F70585E790E00E94FD0682E08093C30013
S11304302091A5003091A6008091A3009091A40082
S11304402817390798F48CB7883C19F40E9472066F
S113045001C01CBE61E08FEB90E00E94F70588E7C5
S113046090E00E94FD0681E08093C3008091A50086
S11304709091A6002091A3003091A40082179307C5
S113048008F4A3C02091AB003091AC0028173907C1
S113049008F49BC08CB7882319F08CB70E947206AD
S11304A060E08FEB90E00E94F7058BE790E00E94FC
S11304B0FD061092C30089C083E00E949001EC0104
S11304C09093A4008093A30087E00E9490019093EE
S11304D0AC008093AB002091A5003091A600821758
S11304E0930740F485E790E00E94FD0682E0809344
S11304F0C30017C02C173D0740F488E790E00E9422
S1130500FD0681E08093C3000CC02C173D0748F022
S11305108217930730F08BE790E00E94FD0610925B
S1130520C3008091B800863419F0883569F00FC093
S11305308BE00E949001682F8093A9009093AA00F9
S11305408CB70E94790603C08CB70E947206809112
S1130550BC00823431F461E08FEB90E00E94F70537
S113056034C060E08FEB90E00E94F7052EC08091CC
S1130570A5009091A6002091AB003091AC00281703
S1130580390740F485E790E00E94FD0682E08093FD
S1130590C3001BC04091A3005091A4008417950789
S11305A040F488E790E00E94FD0681E08093C30058
S11305B00CC08417950748F02817390730F08BE7EB
S11305C090E00E94FD061092C3001092AD00789452
S11305D0FF91EF91DF91CF91BF91AF919F918F9157
S11305E07F916F915F914F913F912F910F900FBE2B
S11305F00F901F9018958091AF00813409F06EC060
S113060083E00E9490019093A4008093A30087E06C
S11306100E9490019093AC008093AB002091A500C0
S11306203091A60082179307A8F483B78F7E83BF07
S113063083B7806283BF88EC0E946A0660E08FEB18
S113064090E00E94F70585E790E00E94FD0682E0B5
S11306508093C3002091A5003091A6008091A3004F
S11306609091A4002817390798F48CB7883C19F4A2
S11306700E94720601C01CBE61E08FEB90E00E94F4
S1130680F70588E790E00E94FD0681E08093C300AF
S11306908091A5009091A6002091A3003091A40020
S11306A08217930708F458C02091AB003091AC0036
S11306B02817390708F450C08CB7882319F08CB771
S11306C00E94720660E08FEB90E00E94F7058BE7D2
S11306D090E00E94FD061092C30008958D34E1F568
S11306E02091A5003091A6008091AB009091AC00C0
S11306F08217930738F482E08093C30085E790E083
S11307000E94FD062091A5003091A6008091A300CF
S11307109091A4002817390738F481E08093C3002E
S113072088E790E00E94FD068091A5009091A600C4
S11307302091A3003091A4008217930768F02091C0
S1130740AB003091AC002817390730F01092C30089
S11307508BE790E00E94FD0608958091C2008823F3
S113076001F18091A5009091A6004091AB005091B9
S1130770AC004817590718F422E02093C3002091D5
S1130780A3003091A4008217930718F461E06093EA
S1130790C3008217930728F04817590710F01092E6
S11307A0C3008091C300813069F018F0823099F061
S11307B008954EE750E060E070E080E090E00E9431
S11307C02F01089545E850E060E070E080E090E09B
S11307D00E942F0108954CE850E060E070E080E052
S11307E090E00E942F010895FF920F931F93CF93DF
S11307F0DF938C01EB01F12C2DC09E01ADECBCEC20
S11308000E941007AC015695479556954795569505
S11308104795CA01880F991F440F551F440F551F50
S1130820440F551F480F591FCE01841B950BAC0173
S11308300E941007EC01D695C795D695C795D69515
S1130840C795E2E0F0E0EF19F109E00FF11F405D18
S11308504083F39492E09F1580F6F8011382DF91B0
S1130860CF911F910F91FF9008950E943A010E9429
S11308704E010E9481010E94A90083E390E00E943E
S1130880F20678940E94AD0360E070E081E090E0AD
S11308900E94180165EA70E080EC90E00E94AC05CB
S11308A06091A5007091A60080E690E00E94F40398
S11308B043E950E060E070E081E090E00E942F01A5
S11308C040E650E06CE070E081E090E00E942F018F
S11308D00E94FB02D7CFDC01892B09F40AC186B13F
S11308E0806886B911968C9111978370813059F084
S11308F018F0823079F015C087B18F7B87B987B142
S11309008F7787B914C087B1806487B987B18F772F
S113091087B90DC087B1806487B987B1806887B90A
S113092006C087B18F7B87B987B18F7787B98C91E0
S1130930982F917080FF03C0913029F008C087B1CF
S11309408F7D87B907C087B1806287B903C087B13B
S1130950806287B94C91E42FE695EF704E2F50E0FA
S11309604830510508F055C0FA01E65DFF4F0C947C
S11309700A0787B18E7F87B987B18D7F87B987B121
S11309808B7F87B94FC087B1816087B987B18D7F6D
S113099087B987B18B7F87B945C087B18E7F87B907
S11309A087B1826087B987B18B7F87B93BC087B134
S11309B0816087B987B1826087B987B18B7F87B936
S11309C031C087B18E7F87B987B18D7F87B987B1F1
S11309D0846087B927C087B1816087B987B18D7F6B
S11309E087B987B1846087B91DC087B1816087B931
S11309F087B1826087B987B18B7F87B913C087B10C
S1130A00816087B987B1826087B987B1846087B90B
S1130A1009C087B18E7F87B987B18D7F87B987B1C8
S1130A208B7F87B98C91E82FE295E695E7708E2F3E
S1130A3090E08730910508F051C0FC01EE5CFF4F57
S1130A400C940A0786B18E7F86B986B18D7F86B9EC
S1130A5086B18B7F86B981E0089586B18E7F86B991
S1130A6086B1826086B986B18B7F86B981E00895AC
S1130A7086B1816086B986B1826086B986B186B94D
S1130A8081E0089586B18E7F86B986B18D7F86B95F
S1130A9086B1846086B981E0089586B1816086B9A3
S1130AA086B18D7F86B986B1846086B981E0089568
S1130AB086B18E7F86B986B1826086B986B184603C
S1130AC086B981E0089586B1816086B986B1826075
S1130AD086B986B1846086B981E0089586B18E7F37
S1130AE086B986B18D7F86B986B18B7F86B981E060
S1130AF0089580E00895009759F16115710551F149
S1130B00FC018081982F917080FF03C0913059F0CF
S1130B101AC084B195B1969587950297FB0191838C
S1130B20808381E0089584B195B10024880F991FD2
S1130B30001C880F991F001C892F902DFB019183A5
S1130B40808381E0089587B18F7D87B981E008951E
S1130B5080E0089580E00895009769F061157105BB
S1130B6061F026B1206426B926B10E947B0596B1B6
S1130B70906196B9089580E0089580E00895FC019D
S1130B80892B99F120812695269527704081437001
S1130B9050E0808185FD15C0440F551FFA01E559C9
S1130BA0FF4F0190F081E02D308181E090E002C0A0
S1130BB0880F991F2A95E2F780958323808381E02B
S1130BC00895440F551FFA01E559FF4F0190F08134
S1130BD0E02D308181E090E002C0880F991F2A95B2
S1130BE0E2F7832B808381E0089580E008950097E5
S1130BF009F440C0662319F06130F9F03DC0FC01EE
S1130C008081E82FE370F0E0EE0FFF1FED59FF4FF6
S1130C100190F081E02D408186958695877021E0D2
S1130C2030E0B90102C0660F771F8A95E2F7CB0165
S1130C3080958423808381E00895FC018081E82FDE
S1130C40E370F0E0EE0FFF1FED59FF4F0190F081CC
S1130C50E02D408186958695877021E030E0B901CA
S1130C6002C0660F771F8A95E2F7CB01842B80833D
S1130C7081E0089580E0089581E00895009749F1A6
S1130C80FC018081813019F0833089F01FC083B763
S1130C90806483BF83B7877F83BF83B78F7E83BF1F
S1130CA083B7806283BF81810E9480060FC083B7AF
S1130CB0806483BF83B7886083BF83B78F7E83BF1D
S1130CC083B7806283BF81810E94800687B3886076
S1130CD087BB089590E002C09CBF9F5F8917E0F72F
S1130CE081E0089502C08CBF81508230E0F781E03A
S1130CF0089502C08CBF8F5F6817E0F781E0089504
S1130D00882309F46DC090E08830910508F05DC037
S1130D10FC01E75CFF4F0C940A0783B78B7F83BF0A
S1130D2083B78D7F83BF83B78E7F83BF81E00895B0
S1130D3083B78B7F83BF83B78D7F83BF83B7816086
S1130D4083BF81E0089583B78B7F83BF83B78260BD
S1130D5083BF83B78E7F83BF81E0089583B78B7F82
S1130D6083BF83B7826083BF83B7816083BF81E021
S1130D70089583B7846083BF83B78D7F83BF83B7B0
S1130D808E7F83BF81E0089583B7846083BF83B778
S1130D908D7F83BF83B7816083BF81E0089583B76C
S1130DA0846083BF83B7826083BF83B78E7F83BF32
S1130DB081E0089583B7846083BF83B7826083BF73
S1130DC083B7816083BF81E0089583B78B7F83BF3E
S1130DD083B78D7F83BF83B7816083BF81E008952C
S1130DE080E0089583E389B988E98AB986E080BD03
S1130DF008955D9BFECF8CB90895CF93DF93EC01EA
S1130E0003C00E94F906219688818111FACFDF91EF
S1130E10CF910895EE0FFF1F0590F491E02D0994F2
S1130E20A29FB001B39FC001A39F700D811D112427
S1130E30911DB29F700D811D1124911D0895F89488
S1050E40FFCFDE
S1130E423030303B003800350032003A003700348D
S1130E5200310031754825004C25004E25006E6F87
S1130E62726D616C00636F6C64202000686F742083
S1130E7220200074656D70657261747572653D0041
S9030000FC
